{
  "contractName": "Hub",
  "abi": [
    {
      "inputs": [],
      "payable": false,
      "stateMutability": "nonpayable",
      "type": "constructor"
    },
    {
      "constant": true,
      "inputs": [],
      "name": "owner",
      "outputs": [
        {
          "internalType": "address",
          "name": "",
          "type": "address"
        }
      ],
      "payable": false,
      "stateMutability": "view",
      "type": "function"
    },
    {
      "constant": false,
      "inputs": [
        {
          "internalType": "address",
          "name": "_piggyBank",
          "type": "address"
        }
      ],
      "name": "addPiggyBank",
      "outputs": [],
      "payable": false,
      "stateMutability": "nonpayable",
      "type": "function"
    },
    {
      "constant": true,
      "inputs": [],
      "name": "piggyBanks",
      "outputs": [
        {
          "internalType": "uint256",
          "name": "",
          "type": "uint256"
        }
      ],
      "payable": false,
      "stateMutability": "view",
      "type": "function"
    },
    {
      "constant": true,
      "inputs": [
        {
          "internalType": "uint256",
          "name": "_idx",
          "type": "uint256"
        }
      ],
      "name": "piggies",
      "outputs": [
        {
          "internalType": "address",
          "name": "",
          "type": "address"
        }
      ],
      "payable": false,
      "stateMutability": "view",
      "type": "function"
    },
    {
      "constant": false,
      "inputs": [
        {
          "internalType": "address",
          "name": "_pb",
          "type": "address"
        },
        {
          "internalType": "address",
          "name": "_newOwner",
          "type": "address"
        }
      ],
      "name": "transferOwnership",
      "outputs": [],
      "payable": false,
      "stateMutability": "nonpayable",
      "type": "function"
    }
  ],
  "bytecode": "0x608060405234801561001057600080fd5b50336000806101000a81548173ffffffffffffffffffffffffffffffffffffffff021916908373ffffffffffffffffffffffffffffffffffffffff16021790555061075b806100606000396000f3fe608060405234801561001057600080fd5b50600436106100575760003560e01c806349a85fae1461005c5780636d4354211461007a5780638da5cb5b146100de578063af682bb614610128578063c195628914610196575b600080fd5b6100646101da565b6040518082815260200191505060405180910390f35b6100dc6004803603604081101561009057600080fd5b81019080803573ffffffffffffffffffffffffffffffffffffffff169060200190929190803573ffffffffffffffffffffffffffffffffffffffff169060200190929190505050610224565b005b6100e66104ca565b604051808273ffffffffffffffffffffffffffffffffffffffff1673ffffffffffffffffffffffffffffffffffffffff16815260200191505060405180910390f35b6101546004803603602081101561013e57600080fd5b81019080803590602001909291905050506104ef565b604051808273ffffffffffffffffffffffffffffffffffffffff1673ffffffffffffffffffffffffffffffffffffffff16815260200191505060405180910390f35b6101d8600480360360208110156101ac57600080fd5b81019080803573ffffffffffffffffffffffffffffffffffffffff16906020019092919050505061056d565b005b6000600160003373ffffffffffffffffffffffffffffffffffffffff1673ffffffffffffffffffffffffffffffffffffffff16815260200190815260200160002080549050905090565b6060600160003373ffffffffffffffffffffffffffffffffffffffff1673ffffffffffffffffffffffffffffffffffffffff1681526020019081526020016000208054806020026020016040519081016040528092919081815260200182805480156102e557602002820191906000526020600020905b8160009054906101000a900473ffffffffffffffffffffffffffffffffffffffff1673ffffffffffffffffffffffffffffffffffffffff168152602001906001019080831161029b575b5050505050905060008090505b8151811015610382578373ffffffffffffffffffffffffffffffffffffffff1682828151811061031e57fe5b602002602001015173ffffffffffffffffffffffffffffffffffffffff1614156103755781818151811061034e57fe5b60200260200101600073ffffffffffffffffffffffffffffffffffffffff16815250610382565b80806001019150506102f2565b50600160008373ffffffffffffffffffffffffffffffffffffffff1673ffffffffffffffffffffffffffffffffffffffff1681526020019081526020016000208390806001815401808255809150509060018203906000526020600020016000909192909190916101000a81548173ffffffffffffffffffffffffffffffffffffffff021916908373ffffffffffffffffffffffffffffffffffffffff16021790555050600160003373ffffffffffffffffffffffffffffffffffffffff1673ffffffffffffffffffffffffffffffffffffffff16815260200190815260200160002060006104719190610613565b80600160003373ffffffffffffffffffffffffffffffffffffffff1673ffffffffffffffffffffffffffffffffffffffff16815260200190815260200160002090805190602001906104c4929190610634565b50505050565b6000809054906101000a900473ffffffffffffffffffffffffffffffffffffffff1681565b6000600160003373ffffffffffffffffffffffffffffffffffffffff1673ffffffffffffffffffffffffffffffffffffffff168152602001908152602001600020828154811061053b57fe5b9060005260206000200160009054906101000a900473ffffffffffffffffffffffffffffffffffffffff169050919050565b600160003373ffffffffffffffffffffffffffffffffffffffff1673ffffffffffffffffffffffffffffffffffffffff1681526020019081526020016000208190806001815401808255809150509060018203906000526020600020016000909192909190916101000a81548173ffffffffffffffffffffffffffffffffffffffff021916908373ffffffffffffffffffffffffffffffffffffffff1602179055505050565b508054600082559060005260206000209081019061063191906106be565b50565b8280548282559060005260206000209081019282156106ad579160200282015b828111156106ac5782518260006101000a81548173ffffffffffffffffffffffffffffffffffffffff021916908373ffffffffffffffffffffffffffffffffffffffff16021790555091602001919060010190610654565b5b5090506106ba91906106e3565b5090565b6106e091905b808211156106dc5760008160009055506001016106c4565b5090565b90565b61072391905b8082111561071f57600081816101000a81549073ffffffffffffffffffffffffffffffffffffffff0219169055506001016106e9565b5090565b9056fea265627a7a72315820c72e36a25adfaee1703a0cad34a11f72a32e0fa1094c339fb125c6d11635c35964736f6c63430005100032",
  "source": "//SPDX-License-Identifier: MIT\npragma solidity >= 0.5.0 < 0.7.0;\n\ncontract Hub {\n  address public owner;\n  mapping(address => address[]) pgs;\n\n  constructor() public {\n    owner = msg.sender;\n  }\n\n  function addPiggyBank(address _piggyBank) public {\n    pgs[msg.sender].push(_piggyBank);\n  }\n\n  function piggyBanks() public view returns(uint) {\n    return pgs[msg.sender].length;\n  }\n\n  function piggies(uint _idx) public view returns(address) {\n    return pgs[msg.sender][_idx];\n  }\n\n  function transferOwnership(address _pb, address _newOwner) public {\n    address[] memory addresses = pgs[msg.sender];\n    for(uint i = 0; i < addresses.length; i++) {\n      if (addresses[i] == _pb) {\n        delete addresses[i];\n        break;\n      }\n    }\n    pgs[_newOwner].push(_pb);\n    delete pgs[msg.sender];\n    pgs[msg.sender] = addresses;\n  }\n}\n",
  "sourcePath": "/home/mesi/Projects/Teaching/piggybank/contracts/Hub.sol",
  "compiler": {
    "name": "solc",
    "version": "0.5.16+commit.9c3226ce.Emscripten.clang"
  },
  "schemaVersion": "3.2.3",
  "updatedAt": "2020-08-14T23:36:31.502Z",
  "networkType": "ethereum",
  "devdoc": {
    "methods": {}
  },
  "userdoc": {
    "methods": {}
  }
}